{
  "_format": "hh-sol-artifact-1",
  "contractName": "VestingManager",
  "sourceName": "contracts/VestingManager.sol",
  "abi": [
    {
      "inputs": [
        {
          "internalType": "address",
          "name": "tokenAddress",
          "type": "address"
        }
      ],
      "stateMutability": "nonpayable",
      "type": "constructor"
    },
    {
      "inputs": [
        {
          "internalType": "address",
          "name": "owner",
          "type": "address"
        }
      ],
      "name": "OwnableInvalidOwner",
      "type": "error"
    },
    {
      "inputs": [
        {
          "internalType": "address",
          "name": "account",
          "type": "address"
        }
      ],
      "name": "OwnableUnauthorizedAccount",
      "type": "error"
    },
    {
      "anonymous": false,
      "inputs": [
        {
          "indexed": true,
          "internalType": "uint256",
          "name": "poolId",
          "type": "uint256"
        },
        {
          "indexed": true,
          "internalType": "address",
          "name": "account",
          "type": "address"
        },
        {
          "indexed": false,
          "internalType": "uint256",
          "name": "amount",
          "type": "uint256"
        }
      ],
      "name": "Claimed",
      "type": "event"
    },
    {
      "anonymous": false,
      "inputs": [
        {
          "indexed": true,
          "internalType": "uint256",
          "name": "poolId",
          "type": "uint256"
        },
        {
          "indexed": false,
          "internalType": "uint256",
          "name": "amount",
          "type": "uint256"
        }
      ],
      "name": "Deposited",
      "type": "event"
    },
    {
      "anonymous": false,
      "inputs": [
        {
          "indexed": true,
          "internalType": "address",
          "name": "previousOwner",
          "type": "address"
        },
        {
          "indexed": true,
          "internalType": "address",
          "name": "newOwner",
          "type": "address"
        }
      ],
      "name": "OwnershipTransferred",
      "type": "event"
    },
    {
      "anonymous": false,
      "inputs": [
        {
          "indexed": true,
          "internalType": "uint256",
          "name": "poolId",
          "type": "uint256"
        },
        {
          "indexed": false,
          "internalType": "bytes32",
          "name": "merkleRoot",
          "type": "bytes32"
        },
        {
          "indexed": false,
          "internalType": "uint256",
          "name": "totalAllocation",
          "type": "uint256"
        }
      ],
      "name": "PoolConfigured",
      "type": "event"
    },
    {
      "anonymous": false,
      "inputs": [
        {
          "indexed": true,
          "internalType": "uint256",
          "name": "poolId",
          "type": "uint256"
        }
      ],
      "name": "PoolFinalized",
      "type": "event"
    },
    {
      "anonymous": false,
      "inputs": [
        {
          "indexed": true,
          "internalType": "uint256",
          "name": "poolId",
          "type": "uint256"
        },
        {
          "indexed": false,
          "internalType": "uint256",
          "name": "amount",
          "type": "uint256"
        }
      ],
      "name": "UnclaimedBurned",
      "type": "event"
    },
    {
      "inputs": [],
      "name": "BPS_DENOM",
      "outputs": [
        {
          "internalType": "uint256",
          "name": "",
          "type": "uint256"
        }
      ],
      "stateMutability": "view",
      "type": "function"
    },
    {
      "inputs": [],
      "name": "DAYS_365",
      "outputs": [
        {
          "internalType": "uint256",
          "name": "",
          "type": "uint256"
        }
      ],
      "stateMutability": "view",
      "type": "function"
    },
    {
      "inputs": [
        {
          "internalType": "uint256",
          "name": "poolId",
          "type": "uint256"
        }
      ],
      "name": "burnUnclaimed",
      "outputs": [],
      "stateMutability": "nonpayable",
      "type": "function"
    },
    {
      "inputs": [
        {
          "internalType": "uint256",
          "name": "poolId",
          "type": "uint256"
        },
        {
          "internalType": "uint256",
          "name": "allocation",
          "type": "uint256"
        },
        {
          "internalType": "bytes32[]",
          "name": "merkleProof",
          "type": "bytes32[]"
        }
      ],
      "name": "claim",
      "outputs": [],
      "stateMutability": "nonpayable",
      "type": "function"
    },
    {
      "inputs": [
        {
          "internalType": "uint256",
          "name": "",
          "type": "uint256"
        },
        {
          "internalType": "address",
          "name": "",
          "type": "address"
        }
      ],
      "name": "claimed",
      "outputs": [
        {
          "internalType": "uint256",
          "name": "",
          "type": "uint256"
        }
      ],
      "stateMutability": "view",
      "type": "function"
    },
    {
      "inputs": [
        {
          "internalType": "uint256",
          "name": "poolId",
          "type": "uint256"
        },
        {
          "internalType": "uint40",
          "name": "tgeTimestamp",
          "type": "uint40"
        },
        {
          "internalType": "uint40",
          "name": "cliffSeconds",
          "type": "uint40"
        },
        {
          "internalType": "uint40",
          "name": "vestingSeconds",
          "type": "uint40"
        },
        {
          "internalType": "uint16",
          "name": "tgePercentBps",
          "type": "uint16"
        },
        {
          "internalType": "uint40",
          "name": "monthlySliceSeconds",
          "type": "uint40"
        },
        {
          "internalType": "bytes32",
          "name": "merkleRoot",
          "type": "bytes32"
        },
        {
          "internalType": "uint256",
          "name": "totalAllocation",
          "type": "uint256"
        }
      ],
      "name": "configurePool",
      "outputs": [],
      "stateMutability": "nonpayable",
      "type": "function"
    },
    {
      "inputs": [
        {
          "internalType": "uint256",
          "name": "poolId",
          "type": "uint256"
        },
        {
          "internalType": "uint256",
          "name": "amount",
          "type": "uint256"
        }
      ],
      "name": "depositForPool",
      "outputs": [],
      "stateMutability": "nonpayable",
      "type": "function"
    },
    {
      "inputs": [
        {
          "internalType": "uint256",
          "name": "poolId",
          "type": "uint256"
        }
      ],
      "name": "finalizePool",
      "outputs": [],
      "stateMutability": "nonpayable",
      "type": "function"
    },
    {
      "inputs": [],
      "name": "owner",
      "outputs": [
        {
          "internalType": "address",
          "name": "",
          "type": "address"
        }
      ],
      "stateMutability": "view",
      "type": "function"
    },
    {
      "inputs": [
        {
          "internalType": "uint256",
          "name": "",
          "type": "uint256"
        }
      ],
      "name": "pools",
      "outputs": [
        {
          "internalType": "uint40",
          "name": "tgeTimestamp",
          "type": "uint40"
        },
        {
          "internalType": "uint40",
          "name": "cliffSeconds",
          "type": "uint40"
        },
        {
          "internalType": "uint40",
          "name": "vestingSeconds",
          "type": "uint40"
        },
        {
          "internalType": "uint16",
          "name": "tgePercentBps",
          "type": "uint16"
        },
        {
          "internalType": "uint40",
          "name": "monthlySliceSeconds",
          "type": "uint40"
        },
        {
          "internalType": "bytes32",
          "name": "merkleRoot",
          "type": "bytes32"
        },
        {
          "internalType": "uint256",
          "name": "totalAllocation",
          "type": "uint256"
        },
        {
          "internalType": "uint256",
          "name": "totalClaimed",
          "type": "uint256"
        },
        {
          "internalType": "bool",
          "name": "finalized",
          "type": "bool"
        },
        {
          "internalType": "uint40",
          "name": "vestingEndTimestamp",
          "type": "uint40"
        },
        {
          "internalType": "bool",
          "name": "burnPerformed",
          "type": "bool"
        }
      ],
      "stateMutability": "view",
      "type": "function"
    },
    {
      "inputs": [],
      "name": "renounceOwnership",
      "outputs": [],
      "stateMutability": "nonpayable",
      "type": "function"
    },
    {
      "inputs": [],
      "name": "token",
      "outputs": [
        {
          "internalType": "contract IERC20",
          "name": "",
          "type": "address"
        }
      ],
      "stateMutability": "view",
      "type": "function"
    },
    {
      "inputs": [
        {
          "internalType": "address",
          "name": "newOwner",
          "type": "address"
        }
      ],
      "name": "transferOwnership",
      "outputs": [],
      "stateMutability": "nonpayable",
      "type": "function"
    },
    {
      "inputs": [
        {
          "internalType": "uint256",
          "name": "poolId",
          "type": "uint256"
        },
        {
          "internalType": "uint256",
          "name": "allocation",
          "type": "uint256"
        }
      ],
      "name": "vestedAmount",
      "outputs": [
        {
          "internalType": "uint256",
          "name": "",
          "type": "uint256"
        }
      ],
      "stateMutability": "view",
      "type": "function"
    }
  ],
  "bytecode": "0x60a06040523480156200001157600080fd5b506040516200240f3803806200240f83398181016040528101906200003791906200029a565b33600073ffffffffffffffffffffffffffffffffffffffff168173ffffffffffffffffffffffffffffffffffffffff1603620000ad5760006040517f1e4fbdf7000000000000000000000000000000000000000000000000000000008152600401620000a49190620002dd565b60405180910390fd5b620000be816200016c60201b60201c565b50600073ffffffffffffffffffffffffffffffffffffffff168173ffffffffffffffffffffffffffffffffffffffff160362000131576040517f08c379a000000000000000000000000000000000000000000000000000000000815260040162000128906200035b565b60405180910390fd5b8073ffffffffffffffffffffffffffffffffffffffff1660808173ffffffffffffffffffffffffffffffffffffffff1681525050506200037d565b60008060009054906101000a900473ffffffffffffffffffffffffffffffffffffffff169050816000806101000a81548173ffffffffffffffffffffffffffffffffffffffff021916908373ffffffffffffffffffffffffffffffffffffffff1602179055508173ffffffffffffffffffffffffffffffffffffffff168173ffffffffffffffffffffffffffffffffffffffff167f8be0079c531659141344cd1fd0a4f28419497f9722a3daafe3b4186f6b6457e060405160405180910390a35050565b600080fd5b600073ffffffffffffffffffffffffffffffffffffffff82169050919050565b6000620002628262000235565b9050919050565b620002748162000255565b81146200028057600080fd5b50565b600081519050620002948162000269565b92915050565b600060208284031215620002b357620002b262000230565b5b6000620002c38482850162000283565b91505092915050565b620002d78162000255565b82525050565b6000602082019050620002f46000830184620002cc565b92915050565b600082825260208201905092915050565b7f746f6b656e3d3000000000000000000000000000000000000000000000000000600082015250565b600062000343600783620002fa565b915062000350826200030b565b602082019050919050565b60006020820190508181036000830152620003768162000334565b9050919050565b608051612061620003ae600039600081816105d901528181610bab01528181610df201526110e201526120616000f3fe608060405234801561001057600080fd5b50600436106100ea5760003560e01c80638da5cb5b1161008c578063affd860111610066578063affd860114610241578063c5a1f4341461025d578063f2fde38b14610279578063fc0c546a14610295576100ea565b80638da5cb5b146101cd578063ac4afa38146101eb578063ae0b51df14610225576100ea565b80636637e38c116100c85780636637e38c1461016d5780636f124c4a1461018b578063715018a6146101a75780638cac5028146101b1576100ea565b8063120aa877146100ef578063307414061461011f57806354b547a51461013d575b600080fd5b6101096004803603810190610104919061139e565b6102b3565b60405161011691906113ed565b60405180910390f35b6101276102d8565b60405161013491906113ed565b60405180910390f35b61015760048036038101906101529190611408565b6102e0565b60405161016491906113ed565b60405180910390f35b6101756105c9565b60405161018291906113ed565b60405180910390f35b6101a560048036038101906101a09190611408565b6105cf565b005b6101af6106f2565b005b6101cb60048036038101906101c691906114f5565b610706565b005b6101d56108b1565b6040516101e291906115ba565b60405180910390f35b610205600480360381019061020091906115d5565b6108da565b60405161021c9b9a9998979695949392919061164a565b60405180910390f35b61023f600480360381019061023a919061175a565b6109b1565b005b61025b600480360381019061025691906115d5565b610ce0565b005b610277600480360381019061027291906115d5565b610fa4565b005b610293600480360381019061028e91906117ce565b61105a565b005b61029d6110e0565b6040516102aa919061185a565b60405180910390f35b6002602052816000526040600020602052806000526040600020600091509150505481565b6301e1338081565b60008060016000858152602001908152602001600020604051806101600160405290816000820160009054906101000a900464ffffffffff1664ffffffffff1664ffffffffff1681526020016000820160059054906101000a900464ffffffffff1664ffffffffff1664ffffffffff16815260200160008201600a9054906101000a900464ffffffffff1664ffffffffff1664ffffffffff16815260200160008201600f9054906101000a900461ffff1661ffff1661ffff1681526020016000820160119054906101000a900464ffffffffff1664ffffffffff1664ffffffffff1681526020016001820154815260200160028201548152602001600382015481526020016004820160009054906101000a900460ff161515151581526020016004820160019054906101000a900464ffffffffff1664ffffffffff1664ffffffffff1681526020016004820160069054906101000a900460ff1615151515815250509050806000015164ffffffffff164210156104625760009150506105c3565b6000612710826060015161ffff168561047b91906118a4565b6104859190611915565b905081610120015164ffffffffff1642106104a45783925050506105c3565b6000826000015164ffffffffff16426104bd9190611946565b9050826020015164ffffffffff1681116104dc578193505050506105c3565b600082866104ea9190611946565b9050600084602001518560400151610502919061197a565b64ffffffffff1690506000856020015164ffffffffff16846105249190611946565b9050600080876080015164ffffffffff1611610541576000610559565b866080015164ffffffffff16826105589190611915565b5b9050600080886080015164ffffffffff161161057657600161058e565b876080015164ffffffffff168461058d9190611915565b5b9050600081838761059f91906118a4565b6105a99190611915565b905080886105b791906119b3565b99505050505050505050505b92915050565b61271081565b6105d7611104565b7f000000000000000000000000000000000000000000000000000000000000000073ffffffffffffffffffffffffffffffffffffffff166323b872dd3330846040518463ffffffff1660e01b8152600401610634939291906119e7565b6020604051808303816000875af1158015610653573d6000803e3d6000fd5b505050506040513d601f19601f820116820180604052508101906106779190611a4a565b6106b6576040517f08c379a00000000000000000000000000000000000000000000000000000000081526004016106ad90611ad4565b60405180910390fd5b817f06da3309189fa49284f335d2c2bcb4cb0b8ad2a59ad92a9bdebeeb8f1ceba511826040516106e691906113ed565b60405180910390a25050565b6106fa611104565b610704600061118b565b565b61070e611104565b6000600160008a815260200190815260200160002090508060040160009054906101000a900460ff1615610777576040517f08c379a000000000000000000000000000000000000000000000000000000000815260040161076e90611b40565b60405180910390fd5b878160000160006101000a81548164ffffffffff021916908364ffffffffff160217905550868160000160056101000a81548164ffffffffff021916908364ffffffffff1602179055508581600001600a6101000a81548164ffffffffff021916908364ffffffffff1602179055508481600001600f6101000a81548161ffff021916908361ffff160217905550838160000160116101000a81548164ffffffffff021916908364ffffffffff16021790555082816001018190555081816002018190555085886108489190611b60565b8160040160016101000a81548164ffffffffff021916908364ffffffffff160217905550887fa35bce24e6898fdf8ae48a732da8bf217a91ea5c1cfc532add542735143cf80a848460405161089e929190611b99565b60405180910390a2505050505050505050565b60008060009054906101000a900473ffffffffffffffffffffffffffffffffffffffff16905090565b60016020528060005260406000206000915090508060000160009054906101000a900464ffffffffff16908060000160059054906101000a900464ffffffffff169080600001600a9054906101000a900464ffffffffff169080600001600f9054906101000a900461ffff16908060000160119054906101000a900464ffffffffff16908060010154908060020154908060030154908060040160009054906101000a900460ff16908060040160019054906101000a900464ffffffffff16908060040160069054906101000a900460ff1690508b565b6000600160008681526020019081526020016000209050600033856040516020016109dd929190611c2b565b604051602081830303815290604052805190602001209050610a45848480806020026020016040519081016040528093929190818152602001838360200280828437600081840152601f19601f8201169050808301925050505050505083600101548361124f565b610a84576040517f08c379a0000000000000000000000000000000000000000000000000000000008152600401610a7b90611ca3565b60405180910390fd5b6000610a9087876102e0565b905060006002600089815260200190815260200160002060003373ffffffffffffffffffffffffffffffffffffffff1673ffffffffffffffffffffffffffffffffffffffff168152602001908152602001600020549050808211610b29576040517f08c379a0000000000000000000000000000000000000000000000000000000008152600401610b2090611d0f565b60405180910390fd5b60008183610b379190611946565b905082600260008b815260200190815260200160002060003373ffffffffffffffffffffffffffffffffffffffff1673ffffffffffffffffffffffffffffffffffffffff1681526020019081526020016000208190555080856003016000828254610ba291906119b3565b925050819055507f000000000000000000000000000000000000000000000000000000000000000073ffffffffffffffffffffffffffffffffffffffff1663a9059cbb33836040518363ffffffff1660e01b8152600401610c04929190611d2f565b6020604051808303816000875af1158015610c23573d6000803e3d6000fd5b505050506040513d601f19601f82011682018060405250810190610c479190611a4a565b610c86576040517f08c379a0000000000000000000000000000000000000000000000000000000008152600401610c7d90611da4565b60405180910390fd5b3373ffffffffffffffffffffffffffffffffffffffff16897f4ec90e965519d92681267467f775ada5bd214aa92c0dc93d90a5e880ce9ed02683604051610ccd91906113ed565b60405180910390a3505050505050505050565b60006001600083815260200190815260200160002090506301e133808160040160019054906101000a900464ffffffffff1664ffffffffff16610d2391906119b3565b4211610d64576040517f08c379a0000000000000000000000000000000000000000000000000000000008152600401610d5b90611e10565b60405180910390fd5b8060040160069054906101000a900460ff1615610db6576040517f08c379a0000000000000000000000000000000000000000000000000000000008152600401610dad90611e7c565b60405180910390fd5b60008160030154826002015411610dce576000610de3565b81600301548260020154610de29190611946565b5b90506000811115610f825760007f000000000000000000000000000000000000000000000000000000000000000073ffffffffffffffffffffffffffffffffffffffff1682604051602401610e3891906113ed565b6040516020818303038152906040527f42966c68000000000000000000000000000000000000000000000000000000007bffffffffffffffffffffffffffffffffffffffffffffffffffffffff19166020820180517bffffffffffffffffffffffffffffffffffffffffffffffffffffffff8381831617835250505050604051610ec29190611f0d565b6000604051808303816000865af19150503d8060008114610eff576040519150601f19603f3d011682016040523d82523d6000602084013e610f04565b606091505b5050905080610f48576040517f08c379a0000000000000000000000000000000000000000000000000000000008152600401610f3f90611f70565b60405180910390fd5b837f62efe6c9bc65ce9db0cb09da932f12313bba9bef672225a6e035354dd205677883604051610f7891906113ed565b60405180910390a2505b60018260040160066101000a81548160ff021916908315150217905550505050565b610fac611104565b60006001600083815260200190815260200160002090506000801b81600101540361100c576040517f08c379a000000000000000000000000000000000000000000000000000000000815260040161100390611fdc565b60405180910390fd5b60018160040160006101000a81548160ff021916908315150217905550817f7ed2d5bdf35d4cb790f65d053de7890f1b4a687ac689ca56c23730833531deb060405160405180910390a25050565b611062611104565b600073ffffffffffffffffffffffffffffffffffffffff168173ffffffffffffffffffffffffffffffffffffffff16036110d45760006040517f1e4fbdf70000000000000000000000000000000000000000000000000000000081526004016110cb91906115ba565b60405180910390fd5b6110dd8161118b565b50565b7f000000000000000000000000000000000000000000000000000000000000000081565b61110c611266565b73ffffffffffffffffffffffffffffffffffffffff1661112a6108b1565b73ffffffffffffffffffffffffffffffffffffffff16146111895761114d611266565b6040517f118cdaa700000000000000000000000000000000000000000000000000000000815260040161118091906115ba565b60405180910390fd5b565b60008060009054906101000a900473ffffffffffffffffffffffffffffffffffffffff169050816000806101000a81548173ffffffffffffffffffffffffffffffffffffffff021916908373ffffffffffffffffffffffffffffffffffffffff1602179055508173ffffffffffffffffffffffffffffffffffffffff168173ffffffffffffffffffffffffffffffffffffffff167f8be0079c531659141344cd1fd0a4f28419497f9722a3daafe3b4186f6b6457e060405160405180910390a35050565b60008261125c858461126e565b1490509392505050565b600033905090565b60008082905060005b84518110156112b3576112a48286838151811061129757611296611ffc565b5b60200260200101516112be565b91508080600101915050611277565b508091505092915050565b60008183106112d6576112d182846112e9565b6112e1565b6112e083836112e9565b5b905092915050565b600082600052816020526040600020905092915050565b600080fd5b600080fd5b6000819050919050565b61131d8161130a565b811461132857600080fd5b50565b60008135905061133a81611314565b92915050565b600073ffffffffffffffffffffffffffffffffffffffff82169050919050565b600061136b82611340565b9050919050565b61137b81611360565b811461138657600080fd5b50565b60008135905061139881611372565b92915050565b600080604083850312156113b5576113b4611300565b5b60006113c38582860161132b565b92505060206113d485828601611389565b9150509250929050565b6113e78161130a565b82525050565b600060208201905061140260008301846113de565b92915050565b6000806040838503121561141f5761141e611300565b5b600061142d8582860161132b565b925050602061143e8582860161132b565b9150509250929050565b600064ffffffffff82169050919050565b61146281611448565b811461146d57600080fd5b50565b60008135905061147f81611459565b92915050565b600061ffff82169050919050565b61149c81611485565b81146114a757600080fd5b50565b6000813590506114b981611493565b92915050565b6000819050919050565b6114d2816114bf565b81146114dd57600080fd5b50565b6000813590506114ef816114c9565b92915050565b600080600080600080600080610100898b03121561151657611515611300565b5b60006115248b828c0161132b565b98505060206115358b828c01611470565b97505060406115468b828c01611470565b96505060606115578b828c01611470565b95505060806115688b828c016114aa565b94505060a06115798b828c01611470565b93505060c061158a8b828c016114e0565b92505060e061159b8b828c0161132b565b9150509295985092959890939650565b6115b481611360565b82525050565b60006020820190506115cf60008301846115ab565b92915050565b6000602082840312156115eb576115ea611300565b5b60006115f98482850161132b565b91505092915050565b61160b81611448565b82525050565b61161a81611485565b82525050565b611629816114bf565b82525050565b60008115159050919050565b6116448161162f565b82525050565b600061016082019050611660600083018e611602565b61166d602083018d611602565b61167a604083018c611602565b611687606083018b611611565b611694608083018a611602565b6116a160a0830189611620565b6116ae60c08301886113de565b6116bb60e08301876113de565b6116c961010083018661163b565b6116d7610120830185611602565b6116e561014083018461163b565b9c9b505050505050505050505050565b600080fd5b600080fd5b600080fd5b60008083601f84011261171a576117196116f5565b5b8235905067ffffffffffffffff811115611737576117366116fa565b5b602083019150836020820283011115611753576117526116ff565b5b9250929050565b6000806000806060858703121561177457611773611300565b5b60006117828782880161132b565b94505060206117938782880161132b565b935050604085013567ffffffffffffffff8111156117b4576117b3611305565b5b6117c087828801611704565b925092505092959194509250565b6000602082840312156117e4576117e3611300565b5b60006117f284828501611389565b91505092915050565b6000819050919050565b600061182061181b61181684611340565b6117fb565b611340565b9050919050565b600061183282611805565b9050919050565b600061184482611827565b9050919050565b61185481611839565b82525050565b600060208201905061186f600083018461184b565b92915050565b7f4e487b7100000000000000000000000000000000000000000000000000000000600052601160045260246000fd5b60006118af8261130a565b91506118ba8361130a565b92508282026118c88161130a565b915082820484148315176118df576118de611875565b5b5092915050565b7f4e487b7100000000000000000000000000000000000000000000000000000000600052601260045260246000fd5b60006119208261130a565b915061192b8361130a565b92508261193b5761193a6118e6565b5b828204905092915050565b60006119518261130a565b915061195c8361130a565b925082820390508181111561197457611973611875565b5b92915050565b600061198582611448565b915061199083611448565b9250828203905064ffffffffff8111156119ad576119ac611875565b5b92915050565b60006119be8261130a565b91506119c98361130a565b92508282019050808211156119e1576119e0611875565b5b92915050565b60006060820190506119fc60008301866115ab565b611a0960208301856115ab565b611a1660408301846113de565b949350505050565b611a278161162f565b8114611a3257600080fd5b50565b600081519050611a4481611a1e565b92915050565b600060208284031215611a6057611a5f611300565b5b6000611a6e84828501611a35565b91505092915050565b600082825260208201905092915050565b7f7472616e7366657246726f6d206661696c656400000000000000000000000000600082015250565b6000611abe601383611a77565b9150611ac982611a88565b602082019050919050565b60006020820190508181036000830152611aed81611ab1565b9050919050565b7f706f6f6c2066696e616c697a6564000000000000000000000000000000000000600082015250565b6000611b2a600e83611a77565b9150611b3582611af4565b602082019050919050565b60006020820190508181036000830152611b5981611b1d565b9050919050565b6000611b6b82611448565b9150611b7683611448565b9250828201905064ffffffffff811115611b9357611b92611875565b5b92915050565b6000604082019050611bae6000830185611620565b611bbb60208301846113de565b9392505050565b60008160601b9050919050565b6000611bda82611bc2565b9050919050565b6000611bec82611bcf565b9050919050565b611c04611bff82611360565b611be1565b82525050565b6000819050919050565b611c25611c208261130a565b611c0a565b82525050565b6000611c378285611bf3565b601482019150611c478284611c14565b6020820191508190509392505050565b7f696e76616c69642070726f6f6600000000000000000000000000000000000000600082015250565b6000611c8d600d83611a77565b9150611c9882611c57565b602082019050919050565b60006020820190508181036000830152611cbc81611c80565b9050919050565b7f6e6f7468696e6700000000000000000000000000000000000000000000000000600082015250565b6000611cf9600783611a77565b9150611d0482611cc3565b602082019050919050565b60006020820190508181036000830152611d2881611cec565b9050919050565b6000604082019050611d4460008301856115ab565b611d5160208301846113de565b9392505050565b7f7472616e73666572206661696c65640000000000000000000000000000000000600082015250565b6000611d8e600f83611a77565b9150611d9982611d58565b602082019050919050565b60006020820190508181036000830152611dbd81611d81565b9050919050565b7f746f6f206561726c790000000000000000000000000000000000000000000000600082015250565b6000611dfa600983611a77565b9150611e0582611dc4565b602082019050919050565b60006020820190508181036000830152611e2981611ded565b9050919050565b7f616c7265616479206275726e6564000000000000000000000000000000000000600082015250565b6000611e66600e83611a77565b9150611e7182611e30565b602082019050919050565b60006020820190508181036000830152611e9581611e59565b9050919050565b600081519050919050565b600081905092915050565b60005b83811015611ed0578082015181840152602081019050611eb5565b60008484015250505050565b6000611ee782611e9c565b611ef18185611ea7565b9350611f01818560208601611eb2565b80840191505092915050565b6000611f198284611edc565b915081905092915050565b7f6275726e206661696c6564000000000000000000000000000000000000000000600082015250565b6000611f5a600b83611a77565b9150611f6582611f24565b602082019050919050565b60006020820190508181036000830152611f8981611f4d565b9050919050565b7f6e6f742073657400000000000000000000000000000000000000000000000000600082015250565b6000611fc6600783611a77565b9150611fd182611f90565b602082019050919050565b60006020820190508181036000830152611ff581611fb9565b9050919050565b7f4e487b7100000000000000000000000000000000000000000000000000000000600052603260045260246000fdfea26469706673582212204d3e54e6d73649c28be424065f863dc148bfaa6f05a802722ba6dfdf6695814764736f6c63430008180033",
  "linkReferences": {},
  "deployedLinkReferences": {}
}