{
  "_format": "hh-sol-artifact-1",
  "contractName": "MaxtronToken",
  "sourceName": "contracts/MaxtronToken.sol",
  "abi": [
    {
      "inputs": [
        {
          "internalType": "address",
          "name": "treasury",
          "type": "address"
        }
      ],
      "stateMutability": "nonpayable",
      "type": "constructor"
    },
    {
      "inputs": [
        {
          "internalType": "address",
          "name": "spender",
          "type": "address"
        },
        {
          "internalType": "uint256",
          "name": "allowance",
          "type": "uint256"
        },
        {
          "internalType": "uint256",
          "name": "needed",
          "type": "uint256"
        }
      ],
      "name": "ERC20InsufficientAllowance",
      "type": "error"
    },
    {
      "inputs": [
        {
          "internalType": "address",
          "name": "sender",
          "type": "address"
        },
        {
          "internalType": "uint256",
          "name": "balance",
          "type": "uint256"
        },
        {
          "internalType": "uint256",
          "name": "needed",
          "type": "uint256"
        }
      ],
      "name": "ERC20InsufficientBalance",
      "type": "error"
    },
    {
      "inputs": [
        {
          "internalType": "address",
          "name": "approver",
          "type": "address"
        }
      ],
      "name": "ERC20InvalidApprover",
      "type": "error"
    },
    {
      "inputs": [
        {
          "internalType": "address",
          "name": "receiver",
          "type": "address"
        }
      ],
      "name": "ERC20InvalidReceiver",
      "type": "error"
    },
    {
      "inputs": [
        {
          "internalType": "address",
          "name": "sender",
          "type": "address"
        }
      ],
      "name": "ERC20InvalidSender",
      "type": "error"
    },
    {
      "inputs": [
        {
          "internalType": "address",
          "name": "spender",
          "type": "address"
        }
      ],
      "name": "ERC20InvalidSpender",
      "type": "error"
    },
    {
      "inputs": [
        {
          "internalType": "address",
          "name": "owner",
          "type": "address"
        }
      ],
      "name": "OwnableInvalidOwner",
      "type": "error"
    },
    {
      "inputs": [
        {
          "internalType": "address",
          "name": "account",
          "type": "address"
        }
      ],
      "name": "OwnableUnauthorizedAccount",
      "type": "error"
    },
    {
      "anonymous": false,
      "inputs": [
        {
          "indexed": true,
          "internalType": "address",
          "name": "owner",
          "type": "address"
        },
        {
          "indexed": true,
          "internalType": "address",
          "name": "spender",
          "type": "address"
        },
        {
          "indexed": false,
          "internalType": "uint256",
          "name": "value",
          "type": "uint256"
        }
      ],
      "name": "Approval",
      "type": "event"
    },
    {
      "anonymous": false,
      "inputs": [
        {
          "indexed": true,
          "internalType": "address",
          "name": "previousOwner",
          "type": "address"
        },
        {
          "indexed": true,
          "internalType": "address",
          "name": "newOwner",
          "type": "address"
        }
      ],
      "name": "OwnershipTransferred",
      "type": "event"
    },
    {
      "anonymous": false,
      "inputs": [
        {
          "indexed": true,
          "internalType": "address",
          "name": "from",
          "type": "address"
        },
        {
          "indexed": true,
          "internalType": "address",
          "name": "to",
          "type": "address"
        },
        {
          "indexed": false,
          "internalType": "uint256",
          "name": "value",
          "type": "uint256"
        }
      ],
      "name": "Transfer",
      "type": "event"
    },
    {
      "inputs": [],
      "name": "INITIAL_SUPPLY",
      "outputs": [
        {
          "internalType": "uint256",
          "name": "",
          "type": "uint256"
        }
      ],
      "stateMutability": "view",
      "type": "function"
    },
    {
      "inputs": [
        {
          "internalType": "address",
          "name": "owner",
          "type": "address"
        },
        {
          "internalType": "address",
          "name": "spender",
          "type": "address"
        }
      ],
      "name": "allowance",
      "outputs": [
        {
          "internalType": "uint256",
          "name": "",
          "type": "uint256"
        }
      ],
      "stateMutability": "view",
      "type": "function"
    },
    {
      "inputs": [
        {
          "internalType": "address",
          "name": "spender",
          "type": "address"
        },
        {
          "internalType": "uint256",
          "name": "value",
          "type": "uint256"
        }
      ],
      "name": "approve",
      "outputs": [
        {
          "internalType": "bool",
          "name": "",
          "type": "bool"
        }
      ],
      "stateMutability": "nonpayable",
      "type": "function"
    },
    {
      "inputs": [
        {
          "internalType": "address",
          "name": "account",
          "type": "address"
        }
      ],
      "name": "balanceOf",
      "outputs": [
        {
          "internalType": "uint256",
          "name": "",
          "type": "uint256"
        }
      ],
      "stateMutability": "view",
      "type": "function"
    },
    {
      "inputs": [
        {
          "internalType": "uint256",
          "name": "value",
          "type": "uint256"
        }
      ],
      "name": "burn",
      "outputs": [],
      "stateMutability": "nonpayable",
      "type": "function"
    },
    {
      "inputs": [
        {
          "internalType": "address",
          "name": "account",
          "type": "address"
        },
        {
          "internalType": "uint256",
          "name": "value",
          "type": "uint256"
        }
      ],
      "name": "burnFrom",
      "outputs": [],
      "stateMutability": "nonpayable",
      "type": "function"
    },
    {
      "inputs": [],
      "name": "decimals",
      "outputs": [
        {
          "internalType": "uint8",
          "name": "",
          "type": "uint8"
        }
      ],
      "stateMutability": "pure",
      "type": "function"
    },
    {
      "inputs": [],
      "name": "name",
      "outputs": [
        {
          "internalType": "string",
          "name": "",
          "type": "string"
        }
      ],
      "stateMutability": "view",
      "type": "function"
    },
    {
      "inputs": [],
      "name": "owner",
      "outputs": [
        {
          "internalType": "address",
          "name": "",
          "type": "address"
        }
      ],
      "stateMutability": "view",
      "type": "function"
    },
    {
      "inputs": [],
      "name": "renounceOwnership",
      "outputs": [],
      "stateMutability": "nonpayable",
      "type": "function"
    },
    {
      "inputs": [],
      "name": "symbol",
      "outputs": [
        {
          "internalType": "string",
          "name": "",
          "type": "string"
        }
      ],
      "stateMutability": "view",
      "type": "function"
    },
    {
      "inputs": [],
      "name": "totalSupply",
      "outputs": [
        {
          "internalType": "uint256",
          "name": "",
          "type": "uint256"
        }
      ],
      "stateMutability": "view",
      "type": "function"
    },
    {
      "inputs": [
        {
          "internalType": "address",
          "name": "to",
          "type": "address"
        },
        {
          "internalType": "uint256",
          "name": "value",
          "type": "uint256"
        }
      ],
      "name": "transfer",
      "outputs": [
        {
          "internalType": "bool",
          "name": "",
          "type": "bool"
        }
      ],
      "stateMutability": "nonpayable",
      "type": "function"
    },
    {
      "inputs": [
        {
          "internalType": "address",
          "name": "from",
          "type": "address"
        },
        {
          "internalType": "address",
          "name": "to",
          "type": "address"
        },
        {
          "internalType": "uint256",
          "name": "value",
          "type": "uint256"
        }
      ],
      "name": "transferFrom",
      "outputs": [
        {
          "internalType": "bool",
          "name": "",
          "type": "bool"
        }
      ],
      "stateMutability": "nonpayable",
      "type": "function"
    },
    {
      "inputs": [
        {
          "internalType": "address",
          "name": "newOwner",
          "type": "address"
        }
      ],
      "name": "transferOwnership",
      "outputs": [],
      "stateMutability": "nonpayable",
      "type": "function"
    }
  ],
  "bytecode": "0x60806040523480156200001157600080fd5b506040516200212e3803806200212e8339818101604052810190620000379190620005ec565b336040518060400160405280600781526020017f4d617874726f6e000000000000000000000000000000000000000000000000008152506040518060400160405280600781526020017f4d415854524f4e000000000000000000000000000000000000000000000000008152508160039081620000b5919062000898565b508060049081620000c7919062000898565b505050600073ffffffffffffffffffffffffffffffffffffffff168173ffffffffffffffffffffffffffffffffffffffff16036200013f5760006040517f1e4fbdf700000000000000000000000000000000000000000000000000000000815260040162000136919062000990565b60405180910390fd5b6200015081620001ff60201b60201c565b50600073ffffffffffffffffffffffffffffffffffffffff168173ffffffffffffffffffffffffffffffffffffffff1603620001c3576040517f08c379a0000000000000000000000000000000000000000000000000000000008152600401620001ba9062000a0e565b60405180910390fd5b620001f881601260ff16600a620001db919062000bb3565b63047868c0620001ec919062000c04565b620002c560201b60201c565b5062000cf5565b6000600560009054906101000a900473ffffffffffffffffffffffffffffffffffffffff16905081600560006101000a81548173ffffffffffffffffffffffffffffffffffffffff021916908373ffffffffffffffffffffffffffffffffffffffff1602179055508173ffffffffffffffffffffffffffffffffffffffff168173ffffffffffffffffffffffffffffffffffffffff167f8be0079c531659141344cd1fd0a4f28419497f9722a3daafe3b4186f6b6457e060405160405180910390a35050565b600073ffffffffffffffffffffffffffffffffffffffff168273ffffffffffffffffffffffffffffffffffffffff16036200033a5760006040517fec442f0500000000000000000000000000000000000000000000000000000000815260040162000331919062000990565b60405180910390fd5b6200034e600083836200035260201b60201c565b5050565b600073ffffffffffffffffffffffffffffffffffffffff168373ffffffffffffffffffffffffffffffffffffffff1603620003a85780600260008282546200039b919062000c4f565b925050819055506200047e565b60008060008573ffffffffffffffffffffffffffffffffffffffff1673ffffffffffffffffffffffffffffffffffffffff1681526020019081526020016000205490508181101562000437578381836040517fe450d38c0000000000000000000000000000000000000000000000000000000081526004016200042e9392919062000c9b565b60405180910390fd5b8181036000808673ffffffffffffffffffffffffffffffffffffffff1673ffffffffffffffffffffffffffffffffffffffff16815260200190815260200160002081905550505b600073ffffffffffffffffffffffffffffffffffffffff168273ffffffffffffffffffffffffffffffffffffffff1603620004c9578060026000828254039250508190555062000516565b806000808473ffffffffffffffffffffffffffffffffffffffff1673ffffffffffffffffffffffffffffffffffffffff168152602001908152602001600020600082825401925050819055505b8173ffffffffffffffffffffffffffffffffffffffff168373ffffffffffffffffffffffffffffffffffffffff167fddf252ad1be2c89b69c2b068fc378daa952ba7f163c4a11628f55a4df523b3ef8360405162000575919062000cd8565b60405180910390a3505050565b600080fd5b600073ffffffffffffffffffffffffffffffffffffffff82169050919050565b6000620005b48262000587565b9050919050565b620005c681620005a7565b8114620005d257600080fd5b50565b600081519050620005e681620005bb565b92915050565b60006020828403121562000605576200060462000582565b5b60006200061584828501620005d5565b91505092915050565b600081519050919050565b7f4e487b7100000000000000000000000000000000000000000000000000000000600052604160045260246000fd5b7f4e487b7100000000000000000000000000000000000000000000000000000000600052602260045260246000fd5b60006002820490506001821680620006a057607f821691505b602082108103620006b657620006b562000658565b5b50919050565b60008190508160005260206000209050919050565b60006020601f8301049050919050565b600082821b905092915050565b600060088302620007207fffffffffffffffffffffffffffffffffffffffffffffffffffffffffffffffff82620006e1565b6200072c8683620006e1565b95508019841693508086168417925050509392505050565b6000819050919050565b6000819050919050565b600062000779620007736200076d8462000744565b6200074e565b62000744565b9050919050565b6000819050919050565b620007958362000758565b620007ad620007a48262000780565b848454620006ee565b825550505050565b600090565b620007c4620007b5565b620007d18184846200078a565b505050565b5b81811015620007f957620007ed600082620007ba565b600181019050620007d7565b5050565b601f82111562000848576200081281620006bc565b6200081d84620006d1565b810160208510156200082d578190505b620008456200083c85620006d1565b830182620007d6565b50505b505050565b600082821c905092915050565b60006200086d600019846008026200084d565b1980831691505092915050565b60006200088883836200085a565b9150826002028217905092915050565b620008a3826200061e565b67ffffffffffffffff811115620008bf57620008be62000629565b5b620008cb825462000687565b620008d8828285620007fd565b600060209050601f831160018114620009105760008415620008fb578287015190505b6200090785826200087a565b86555062000977565b601f1984166200092086620006bc565b60005b828110156200094a5784890151825560018201915060208501945060208101905062000923565b868310156200096a578489015162000966601f8916826200085a565b8355505b6001600288020188555050505b505050505050565b6200098a81620005a7565b82525050565b6000602082019050620009a760008301846200097f565b92915050565b600082825260208201905092915050565b7f74726561737572793d3000000000000000000000000000000000000000000000600082015250565b6000620009f6600a83620009ad565b915062000a0382620009be565b602082019050919050565b6000602082019050818103600083015262000a2981620009e7565b9050919050565b7f4e487b7100000000000000000000000000000000000000000000000000000000600052601160045260246000fd5b60008160011c9050919050565b6000808291508390505b600185111562000abe5780860481111562000a965762000a9562000a30565b5b600185161562000aa65780820291505b808102905062000ab68562000a5f565b945062000a76565b94509492505050565b60008262000ad9576001905062000bac565b8162000ae9576000905062000bac565b816001811462000b02576002811462000b0d5762000b43565b600191505062000bac565b60ff84111562000b225762000b2162000a30565b5b8360020a91508482111562000b3c5762000b3b62000a30565b5b5062000bac565b5060208310610133831016604e8410600b841016171562000b7d5782820a90508381111562000b775762000b7662000a30565b5b62000bac565b62000b8c848484600162000a6c565b9250905081840481111562000ba65762000ba562000a30565b5b81810290505b9392505050565b600062000bc08262000744565b915062000bcd8362000744565b925062000bfc7fffffffffffffffffffffffffffffffffffffffffffffffffffffffffffffffff848462000ac7565b905092915050565b600062000c118262000744565b915062000c1e8362000744565b925082820262000c2e8162000744565b9150828204841483151762000c485762000c4762000a30565b5b5092915050565b600062000c5c8262000744565b915062000c698362000744565b925082820190508082111562000c845762000c8362000a30565b5b92915050565b62000c958162000744565b82525050565b600060608201905062000cb260008301866200097f565b62000cc1602083018562000c8a565b62000cd0604083018462000c8a565b949350505050565b600060208201905062000cef600083018462000c8a565b92915050565b6114298062000d056000396000f3fe608060405234801561001057600080fd5b50600436106100f55760003560e01c806370a082311161009757806395d89b411161006657806395d89b4114610262578063a9059cbb14610280578063dd62ed3e146102b0578063f2fde38b146102e0576100f5565b806370a08231146101ee578063715018a61461021e57806379cc6790146102285780638da5cb5b14610244576100f5565b806323b872dd116100d357806323b872dd146101665780632ff2e9dc14610196578063313ce567146101b457806342966c68146101d2576100f5565b806306fdde03146100fa578063095ea7b31461011857806318160ddd14610148575b600080fd5b6101026102fc565b60405161010f9190610e90565b60405180910390f35b610132600480360381019061012d9190610f4b565b61038e565b60405161013f9190610fa6565b60405180910390f35b6101506103b1565b60405161015d9190610fd0565b60405180910390f35b610180600480360381019061017b9190610feb565b6103bb565b60405161018d9190610fa6565b60405180910390f35b61019e6103ea565b6040516101ab9190610fd0565b60405180910390f35b6101bc61040d565b6040516101c9919061105a565b60405180910390f35b6101ec60048036038101906101e79190611075565b610416565b005b610208600480360381019061020391906110a2565b61042a565b6040516102159190610fd0565b60405180910390f35b610226610472565b005b610242600480360381019061023d9190610f4b565b610486565b005b61024c6104a6565b60405161025991906110de565b60405180910390f35b61026a6104d0565b6040516102779190610e90565b60405180910390f35b61029a60048036038101906102959190610f4b565b610562565b6040516102a79190610fa6565b60405180910390f35b6102ca60048036038101906102c591906110f9565b610585565b6040516102d79190610fd0565b60405180910390f35b6102fa60048036038101906102f591906110a2565b61060c565b005b60606003805461030b90611168565b80601f016020809104026020016040519081016040528092919081815260200182805461033790611168565b80156103845780601f1061035957610100808354040283529160200191610384565b820191906000526020600020905b81548152906001019060200180831161036757829003601f168201915b5050505050905090565b600080610399610692565b90506103a681858561069a565b600191505092915050565b6000600254905090565b6000806103c6610692565b90506103d38582856106ac565b6103de858585610741565b60019150509392505050565b601260ff16600a6103fb91906112fb565b63047868c061040a9190611346565b81565b60006012905090565b610427610421610692565b82610835565b50565b60008060008373ffffffffffffffffffffffffffffffffffffffff1673ffffffffffffffffffffffffffffffffffffffff168152602001908152602001600020549050919050565b61047a6108b7565b610484600061093e565b565b61049882610492610692565b836106ac565b6104a28282610835565b5050565b6000600560009054906101000a900473ffffffffffffffffffffffffffffffffffffffff16905090565b6060600480546104df90611168565b80601f016020809104026020016040519081016040528092919081815260200182805461050b90611168565b80156105585780601f1061052d57610100808354040283529160200191610558565b820191906000526020600020905b81548152906001019060200180831161053b57829003601f168201915b5050505050905090565b60008061056d610692565b905061057a818585610741565b600191505092915050565b6000600160008473ffffffffffffffffffffffffffffffffffffffff1673ffffffffffffffffffffffffffffffffffffffff16815260200190815260200160002060008373ffffffffffffffffffffffffffffffffffffffff1673ffffffffffffffffffffffffffffffffffffffff16815260200190815260200160002054905092915050565b6106146108b7565b600073ffffffffffffffffffffffffffffffffffffffff168173ffffffffffffffffffffffffffffffffffffffff16036106865760006040517f1e4fbdf700000000000000000000000000000000000000000000000000000000815260040161067d91906110de565b60405180910390fd5b61068f8161093e565b50565b600033905090565b6106a78383836001610a04565b505050565b60006106b88484610585565b90507fffffffffffffffffffffffffffffffffffffffffffffffffffffffffffffffff81101561073b578181101561072b578281836040517ffb8f41b200000000000000000000000000000000000000000000000000000000815260040161072293929190611388565b60405180910390fd5b61073a84848484036000610a04565b5b50505050565b600073ffffffffffffffffffffffffffffffffffffffff168373ffffffffffffffffffffffffffffffffffffffff16036107b35760006040517f96c6fd1e0000000000000000000000000000000000000000000000000000000081526004016107aa91906110de565b60405180910390fd5b600073ffffffffffffffffffffffffffffffffffffffff168273ffffffffffffffffffffffffffffffffffffffff16036108255760006040517fec442f0500000000000000000000000000000000000000000000000000000000815260040161081c91906110de565b60405180910390fd5b610830838383610bdb565b505050565b600073ffffffffffffffffffffffffffffffffffffffff168273ffffffffffffffffffffffffffffffffffffffff16036108a75760006040517f96c6fd1e00000000000000000000000000000000000000000000000000000000815260040161089e91906110de565b60405180910390fd5b6108b382600083610bdb565b5050565b6108bf610692565b73ffffffffffffffffffffffffffffffffffffffff166108dd6104a6565b73ffffffffffffffffffffffffffffffffffffffff161461093c57610900610692565b6040517f118cdaa700000000000000000000000000000000000000000000000000000000815260040161093391906110de565b60405180910390fd5b565b6000600560009054906101000a900473ffffffffffffffffffffffffffffffffffffffff16905081600560006101000a81548173ffffffffffffffffffffffffffffffffffffffff021916908373ffffffffffffffffffffffffffffffffffffffff1602179055508173ffffffffffffffffffffffffffffffffffffffff168173ffffffffffffffffffffffffffffffffffffffff167f8be0079c531659141344cd1fd0a4f28419497f9722a3daafe3b4186f6b6457e060405160405180910390a35050565b600073ffffffffffffffffffffffffffffffffffffffff168473ffffffffffffffffffffffffffffffffffffffff1603610a765760006040517fe602df05000000000000000000000000000000000000000000000000000000008152600401610a6d91906110de565b60405180910390fd5b600073ffffffffffffffffffffffffffffffffffffffff168373ffffffffffffffffffffffffffffffffffffffff1603610ae85760006040517f94280d62000000000000000000000000000000000000000000000000000000008152600401610adf91906110de565b60405180910390fd5b81600160008673ffffffffffffffffffffffffffffffffffffffff1673ffffffffffffffffffffffffffffffffffffffff16815260200190815260200160002060008573ffffffffffffffffffffffffffffffffffffffff1673ffffffffffffffffffffffffffffffffffffffff168152602001908152602001600020819055508015610bd5578273ffffffffffffffffffffffffffffffffffffffff168473ffffffffffffffffffffffffffffffffffffffff167f8c5be1e5ebec7d5bd14f71427d1e84f3dd0314c0f7b2291e5b200ac8c7c3b92584604051610bcc9190610fd0565b60405180910390a35b50505050565b600073ffffffffffffffffffffffffffffffffffffffff168373ffffffffffffffffffffffffffffffffffffffff1603610c2d578060026000828254610c2191906113bf565b92505081905550610d00565b60008060008573ffffffffffffffffffffffffffffffffffffffff1673ffffffffffffffffffffffffffffffffffffffff16815260200190815260200160002054905081811015610cb9578381836040517fe450d38c000000000000000000000000000000000000000000000000000000008152600401610cb093929190611388565b60405180910390fd5b8181036000808673ffffffffffffffffffffffffffffffffffffffff1673ffffffffffffffffffffffffffffffffffffffff16815260200190815260200160002081905550505b600073ffffffffffffffffffffffffffffffffffffffff168273ffffffffffffffffffffffffffffffffffffffff1603610d495780600260008282540392505081905550610d96565b806000808473ffffffffffffffffffffffffffffffffffffffff1673ffffffffffffffffffffffffffffffffffffffff168152602001908152602001600020600082825401925050819055505b8173ffffffffffffffffffffffffffffffffffffffff168373ffffffffffffffffffffffffffffffffffffffff167fddf252ad1be2c89b69c2b068fc378daa952ba7f163c4a11628f55a4df523b3ef83604051610df39190610fd0565b60405180910390a3505050565b600081519050919050565b600082825260208201905092915050565b60005b83811015610e3a578082015181840152602081019050610e1f565b60008484015250505050565b6000601f19601f8301169050919050565b6000610e6282610e00565b610e6c8185610e0b565b9350610e7c818560208601610e1c565b610e8581610e46565b840191505092915050565b60006020820190508181036000830152610eaa8184610e57565b905092915050565b600080fd5b600073ffffffffffffffffffffffffffffffffffffffff82169050919050565b6000610ee282610eb7565b9050919050565b610ef281610ed7565b8114610efd57600080fd5b50565b600081359050610f0f81610ee9565b92915050565b6000819050919050565b610f2881610f15565b8114610f3357600080fd5b50565b600081359050610f4581610f1f565b92915050565b60008060408385031215610f6257610f61610eb2565b5b6000610f7085828601610f00565b9250506020610f8185828601610f36565b9150509250929050565b60008115159050919050565b610fa081610f8b565b82525050565b6000602082019050610fbb6000830184610f97565b92915050565b610fca81610f15565b82525050565b6000602082019050610fe56000830184610fc1565b92915050565b60008060006060848603121561100457611003610eb2565b5b600061101286828701610f00565b935050602061102386828701610f00565b925050604061103486828701610f36565b9150509250925092565b600060ff82169050919050565b6110548161103e565b82525050565b600060208201905061106f600083018461104b565b92915050565b60006020828403121561108b5761108a610eb2565b5b600061109984828501610f36565b91505092915050565b6000602082840312156110b8576110b7610eb2565b5b60006110c684828501610f00565b91505092915050565b6110d881610ed7565b82525050565b60006020820190506110f360008301846110cf565b92915050565b600080604083850312156111105761110f610eb2565b5b600061111e85828601610f00565b925050602061112f85828601610f00565b9150509250929050565b7f4e487b7100000000000000000000000000000000000000000000000000000000600052602260045260246000fd5b6000600282049050600182168061118057607f821691505b60208210810361119357611192611139565b5b50919050565b7f4e487b7100000000000000000000000000000000000000000000000000000000600052601160045260246000fd5b60008160011c9050919050565b6000808291508390505b600185111561121f578086048111156111fb576111fa611199565b5b600185161561120a5780820291505b8081029050611218856111c8565b94506111df565b94509492505050565b60008261123857600190506112f4565b8161124657600090506112f4565b816001811461125c576002811461126657611295565b60019150506112f4565b60ff84111561127857611277611199565b5b8360020a91508482111561128f5761128e611199565b5b506112f4565b5060208310610133831016604e8410600b84101617156112ca5782820a9050838111156112c5576112c4611199565b5b6112f4565b6112d784848460016111d5565b925090508184048111156112ee576112ed611199565b5b81810290505b9392505050565b600061130682610f15565b915061131183610f15565b925061133e7fffffffffffffffffffffffffffffffffffffffffffffffffffffffffffffffff8484611228565b905092915050565b600061135182610f15565b915061135c83610f15565b925082820261136a81610f15565b9150828204841483151761138157611380611199565b5b5092915050565b600060608201905061139d60008301866110cf565b6113aa6020830185610fc1565b6113b76040830184610fc1565b949350505050565b60006113ca82610f15565b91506113d583610f15565b92508282019050808211156113ed576113ec611199565b5b9291505056fea2646970667358221220f97fa3e6555ae53a171c12a28b0c55c839dbcb3dc0effbdcafbda8f4e472c7ae64736f6c63430008180033",
  "linkReferences": {},
  "deployedLinkReferences": {}
}